:020000040800F2
:1000000070170020F50100087D1D0008751D00080F
:10001000791D0008FD170008E7290008000000000E
:10002000000000000000000000000000991F000810
:100030000118000800000000291E0008AD2000087B
:100040000F0200080F0200080F0200080F0200084C
:100050000F0200080F0200080F0200080F0200083C
:100060000F0200080F0200080F0200080F0200082C
:100070000F0200080F0200080F0200080F0200081C
:100080000F0200080F0200080F0200080F0200080C
:100090000F0200080F0200080F02000805180008F0
:1000A0000F0200087D2100080F0200080F0200085F
:1000B00005220008C92200086D2300080F0200086D
:1000C0000F0200080F0200080F0200080F020008CC
:1000D0000F0200080F020008152700080F02000891
:1000E0000F0200080F0200080F02000800F002F8DB
:1000F00000F070F80AA090E8000C82448344AAF152
:100100000107DA4501D100F065F8AFF2090EBAE84F
:100110000F0013F0010F18BFFB1A43F0010318473B
:1001200040970000609700000A444FF0000C10F860
:10013000013B13F0070408BF10F8014B1D1108BF65
:1001400010F8015B641E05D010F8016B641E01F805
:10015000016BF9D113F0080F1EBF10F8014BAD1C55
:100160000C1B09D16D1E58BF01F801CBFAD505E073
:1001700014F8016B01F8016B6D1EF9D59142D6D3CD
:10018000704700000023002400250026103A28BFF5
:1001900078C1FBD8520728BF30C148BF0B607047F9
:1001A000662908F06087642900F0B080632900F0B8
:1001B0004B84732900F05084002070471FB500F075
:1001C00093FC04000020002107F0C4FEE0601FBD86
:1001D00010B510BD00F0A0FD1146FFF7EFFF05F0D0
:1001E000C1FC00F0BEFD03B4FFF7F2FF03BC02F058
:1001F00032FC00000948804709480047FEE7FEE757
:10020000FEE7FEE7FEE7FEE7FEE7FEE7FEE7FEE7C6
:1002100004480549054A064B70470000B120000814
:10022000ED000008701100207017002070130020EE
:1002300070130020704700000FB4044910B503AAE2
:10024000029800F00DFC10BC5DF814FB4400002087
:100250002DE9F0410E460446002020622046E16868
:10026000884730B3252805D0D4E901219047206A7A
:10027000401CF2E7E168204600278847050018D0B7
:10028000A5F14100192802D820354FF40067324605
:10029000294620462760FFF783FF40B1012804D09C
:1002A000F61D26F007060836D8E7361DD6E728469D
:1002B000DAE7206ABDE8F08170B50C460546012AF0
:1002C00005D02878800600D5EA69002302E00123E2
:1002D00005E05B1C934202D2E05C0028F9D1A869DA
:1002E000E618C01AA861286A184428622846AFF3A5
:1002F000008004E0D5E9012114F8010B9047B442D5
:10030000F8D32846AFF3008070BD00002DE9F0411E
:100310000646002410687529314616A510D0AFF3A3
:100320000080002802DA404213A507E031688A07FE
:1003300001D512A502E0490704D511A5012401E069
:10034000AFF3008000210A2206F1240709E0B0FB88
:10035000F2FCB0FBF2F302FB1C003030785418467C
:10036000491C0028F3D123462A463046BDE8F04117
:1003700000F0FAB8000000002D0000002B00000083
:100380002000000010B5431C02E010F8011B71B101
:100390008107FAD14FF0013202C88C1A8C4314EA5B
:1003A000C211F9D0C01A0A0603D0C01E10BDC01A6F
:1003B00010BD0A0401D0801E10BD0902FCD0401EF1
:1003C00010BD032A40F2308010F0030C00F01580BD
:1003D00011F8013BBCF1020F624498BF11F801CB48
:1003E00000F8013B38BF11F8013BA2F1040298BFAD
:1003F00000F801CB38BF00F8013B11F0030300F017
:100400004183083AC0F0088051F8043B083A51F89B
:1004100004CBA0E80810F5E7121D5CBF51F8043BBF
:1004200040F8043BAFF30080D20724BF11F8013B32
:1004300011F801CB48BF11F8012B24BF00F8013B94
:1004400000F801CB48BF00F8012B70474FF00002C5
:100450000429C0F0128010F0030C00F01B80CCF1D6
:10046000040CBCF1020F18BF00F8012BA8BF20F844
:10047000022BA1EB0C0100F00DB85FEAC17C24BF98
:1004800000F8012B00F8012B48BF00F8012B704742
:100490004FF0000200B5134694469646203922BF1D
:1004A000A0E80C50A0E80C50B1F12001BFF4F7AF68
:1004B000090728BFA0E80C5048BF0CC05DF804EB4A
:1004C000890028BF40F8042B08BF704748BF20F8B8
:1004D000022B11F0804F18BF00F8012B704700006D
:1004E0004FF0013C50F8042B51F8043B9A4221D1C3
:1004F000A2EB0C03934313EACC1317D150F8042B4F
:1005000051F8043B9A4215D1A2EB0C03934313EA32
:10051000CC130BD150F8042B51F8043B9A4209D16B
:10052000A2EB0C03934313EACC13DBD04FF0000093
:10053000704700BFD01A01BAB1FA81F101F0180179
:1005400022FA01F0CB40C1F12001DBB2C0B2C01AE7
:100550002CFA01F3D11A914311EAC311E6D1704785
:1005600070477047704770472DE9F0470D46994630
:100570009246044600F124080168880604D5E06923
:1005800021F01001216000E00120A84201DD471B9D
:1005900000E00027A1697A1902EB0900081AA0619E
:1005A0002078C00602D42046AFF30080002608E081
:1005B000D4E901211AF806009047206A401C761CF5
:1005C00020624E45F4DB2078C0060AD52046AFF302
:1005D000008006E0D4E9012130209047206A401CC9
:1005E0002062381EA7F10107F4DC07E0D4E90121FD
:1005F00018F805009047206A401C2062281EA5F1CB
:100600000105F3DC2046AFF300802078000602D518
:100610000220BDE8F0870120FBE770472DE9FF4F7E
:100620000C461E464FF0FF378BB0D2E90001DDF8D3
:1006300060800A908A46C1F30A5505B93D460021FB
:1006400008464FF00000BAF1000F00F4400005DA50
:1006500000EB80004FF4400101EA50004FEA90594E
:10066000B9F1010F00DDB9460A9850EA4A000ED0F0
:1006700044F61050A5F2FF3545432F14B8F1000F92
:100680001ED07542291E1EDDC9F100021CE0B8F122
:10069000010F4FF0000001D0302103E0F24305E0EC
:1006A0002154401CB042FBDB304600220021215483
:1006B0000B99C1F80880C1E900200FB0BDE8F08FA8
:1006C000BD1B6D1CDEE74A4600DA694206A800F051
:1006D000ADFA06AB93E8070003AB83E8070050468A
:1006E0000A9900F047FB8DE80700A0F500501F387D
:1006F00000900398002D09DD42F21F014A4608448C
:1007000003A90390684600F0A6FD08E0A0F500509C
:100710004A461F3803A90390684600F0B0FD8DE8F3
:1007200007000004000C03D04FF0FF30410800E048
:100730001046B8F1000F03D00022009215461EE0CB
:10074000751E05D400F0D4F9303262556D1EF9D50E
:10075000B3460122084302D000227F1C04E0207827
:10076000302801D100227F1E002A099786D01DE083
:10077000112D07DA00F0BCF9303262556D1C50EAD9
:100780000102F5D1084302D00098C8B10EE0002163
:10079000681E05E0235C625C63542254401E491CC1
:1007A0008142F7DBAB46A81B401E0990002004F8ED
:1007B0000B000B98099AC0F80880C0E9002B7CE771
:1007C00011264FF0000859E72DE9F04F88460446FE
:1007D000D21D22F0070191B0D1E90001CDE90A0153
:1007E00002F022F902460B98C00F01D02D2007E03D
:1007F0002068810701D52B2002E0202101EAC000FA
:10080000032A099001D0072A05DB0346414620460A
:1008100000F0CCF90BE12078800601D5E06900E01A
:100820000620B8F1650F814606D0B8F1660F18D0E2
:10083000B8F1670F70D131E00020B9F1110F0090CD
:1008400001DB112301E009F101030AAA01A90CA8A7
:10085000FFF7E4FEDDE90C70002609F1010583468F
:1008600047E001204B4600904FF000470AAA01A93B
:100870000CA8FFF7D3FEDDE90DB00C995D4600260C
:1008800010B909F101000D18B9EB050003D4C0F14E
:10089000FF3609F10105A5EB09002BE0B9F1010FC5
:1008A00001DA4FF001090020B9F1110F009048461C
:1008B00001DD112300E003460AAA01A90CA8FFF7F5
:1008C000ADFEDDE90C704D4600268346207800071A
:1008D0000AD4AB4500DA5D4601A8012D04DD4119BB
:1008E00011F8011C302907D04F4502DA17F1040F27
:1008F00004DA012082460FE06D1EEEE7002F02DCD5
:10090000ED1B3E4403E0781CA84200DD7D1CB81BB3
:1009100000F1010A4FF000472078000703D4AA45F0
:1009200001DB4FF0FF3A0021B7F1004F0DF1430812
:100930008DF8431024D002202B23002F01DA7F42B0
:100940002D230A21021EA0F1010000DC5FB197FBFC
:10095000F1FC97FBF1F201FB1C7C17460CF1300C0B
:1009600008F801CDEEE7A8F1010003702188090520
:1009700001D5452100E06521A0F1010800F8011C26
:1009800009980FA9A1EB0807FF1D00B1012041192B
:1009900001EBEA70A1693844081A401EA061207872
:1009A000C00602D42046AFF30080099828B1D4E9EC
:1009B00001219047206A401C20622078C00622D581
:1009C0002046AFF300801EE0002E04DBB34502DDBD
:1009D00001A8805D00E03020D4E901219047206A21
:1009E000401C2062761CAAF101005FEA000A0AD1CD
:1009F00000F07AF8C0680168405CD4E901219047B2
:100A0000206A401C2062281EA5F10105DCDC07E0FD
:100A1000D4E9012118F8010B9047206A401C20629C
:100A2000381EA7F10107F3DC2046AFF30080032056
:100A300011B043E610B5436913B1AFF3008001E094
:100A4000FFF73AFC012010BD127800F124010A7072
:100A500000224A700122EDE711684FF0FF32E9E70A
:100A6000074B70B50D467B4400F08DF804462846D0
:100A700000F04AF910B14FF0FF3070BD204670BD54
:100A80000B33000010B5203AC0F00B80B1E81850CD
:100A9000203AA0E81850B1E81850A0E81850BFF468
:100AA000F5AF5FEA027C24BFB1E81850A0E8185007
:100AB00044BF18C918C0BDE810405FEA827C24BF5B
:100AC00051F8043B40F8043B08BF7047D20728BFE9
:100AD00031F8023B48BF11F8012B28BF20F8023B38
:100AE00048BF00F8012B7047004870472C110020C8
:100AF00030B5B0F10A024FEA900E71F100034EEAF0
:100B0000817EB0EB0E0061EB91014FEA101E4EEAC0
:100B1000017E10EB0E0041EB11114FEA102E4EEA50
:100B2000016E10EB0E0041EB11214FEA104E4EEA20
:100B3000014E10EB0E0041EB1141401841F1000154
:100B40004FEAD00040EA41704FEAD10110EB800536
:100B50004FEA810444EA907444EB01046D1944EBBC
:100B60000404521BA3414FF0000348BF0A3200D5D2
:100B700030BD401C41F1000130BD000001694A1C3C
:100B800002610878704700B58FB0CDE901310021CE
:100B9000059105497944CDE9031011466846FFF7F0
:100BA00057FB0FB000BD0000E5FFFFFF2DE9F0414E
:100BB0001F46044603260168072A01F4006004DB8F
:100BC00008B116A505E016A503E008B115A500E0DB
:100BD00015A521F010002060A069C01EA0610FB112
:100BE000401EA0612046AFF300804FB1D4E901213F
:100BF00038469047206A401C2062C01C206206E0F4
:100C0000206AFAE7D4E9012115F8010B9047761E16
:100C1000F8D22046AFF30080BDE8F0814E414E008F
:100C20006E616E00494E4600696E66002DE9F04720
:100C3000814616468AB0334878440DC88DE80D00C9
:100C400030487844801C03AC0DC884E80D0041F6A0
:100C50009B300844372190FBF1F290FBF1F5A5F1B0
:100C6000800501FB12041B3C02D56442012000E018
:100C70000020DFF890A080460027FA44AAF1BE0ABF
:100C80000DE0E00709D03246684607EB47010AEB62
:100C9000810100F0F4FA8DE8070064107F1C002C3D
:100CA000EFD1184F7F44AC3F18E0E80714D007EBB2
:100CB00004100DF1180A90E80E008AE80E00C068D2
:100CC000F04201D198190890324606A903A800F015
:100CD000D6FA03AB83E807006D10641C002DE4D145
:100CE00032466946B8F1000F03A802D000F0B3FA0B
:100CF00001E000F0C4FAC9E90001C9F808200AB00F
:100D0000BDE8F087AC840000007B00F080007047F5
:100D1000004870470C1100207546FFF7F9FFAE46FA
:100D200005006946534620F00700854618B020B5F7
:100D3000FFF76EFABDE820404FF000064FF00007C5
:100D40004FF000084FF0000B21F00701AC46ACE873
:100D5000C009ACE8C009ACE8C009ACE8C0098D46E0
:100D6000704710B50446AFF300802046BDE8104040
:100D7000FFF739BA5FEA400C08BF91F0000F4FEA65
:100D80008C234FEAC12243EA51514FEA1C5018BF4D
:100D900000F5F0404FEA300018BF41F000415FEA33
:100DA0006C5C00F02980BCF1FF3F08BF40F0804040
:100DB0007047130C06BF12044FF0100C4FF0000CDC
:100DC000130E04BF12020CF1080C130F04BF120122
:100DD0000CF1040C930F04BF92000CF1020CD30F22
:100DE00004BF52000CF1010C11464FF00002A0F1BB
:100DF0001F00A0EB0C00704711F0004F08BF7047B8
:100E000031F000413FF4D5AF0B0C06BF09044FF0A1
:100E1000100C4FF0000C0B0E04BF09020CF1080C73
:100E20000B0F04BF09010CF1040C8B0F04BF8900E8
:100E30000CF1020CCB0F04BF49000CF1010CCCF1FA
:100E40002003A0EB0C0022FA03F302FA0CF241EAB1
:100E5000030100F10100704720F07F4C80EA03009D
:100E600023F07F47ACEB070303F57C5300F0004011
:100E700003F1FF032DE980494FEA154B09B44FEA0E
:100E8000144325EA0B4E24EA03480FF2042606EB2E
:100E9000132749083E785FEA320203FB0667C7F56D
:100EA000000707FB06F64FEA54374FEAD64606F12D
:100EB000020607FB066CCCF1005C4FEA1C472CEAEB
:100EC000074C07FB06F40CFB06F504EB15464FEA4E
:100ED000961634BF00204FF000404FEAD13706FB92
:100EE00007FC4FEA1C4C0CFB0BF7D21B03FB0CF767
:100EF00061EB07010CFB0EF7B0EB074072EB1742FA
:100F00000CFB08F734BFA2EB0742B2EB074261EBE0
:100F100017414FEA0C444FEA910706FB07FC4FEAE2
:100F20001C4C0CFB0BF7B0EBC74072EB573203FBCA
:100F30000CF734BFA2EBC742B2EBC74261EB5731AB
:100F40000CFB0EF7B0EBC70072EB57720CFB08F707
:100F500034BFA2EBC702B2EBC70261EB5771039F2C
:100F60004FEA816141EA921104EBCC044FEAD13798
:100F70004FEA826206FB07FC42EA90124FEA806069
:100F80004FEA1C4C0CFB0BF7D21B03FB0CF761EB7D
:100F900007010CFB0EF7B0EB074072EB17420CFB9E
:100FA00008F734BFA2EB0742B2EB074261EB1741EF
:100FB0004FEA8C554FEA910704EB9C2406FB07FC93
:100FC0004FEA1C4C0CFB0BF7B0EBC74072EB5732EF
:100FD00003FB0CF734BFA2EBC742B2EBC74261EB95
:100FE00057310CFB0EF7B0EBC70072EB57720CFBDE
:100FF00008F734BFA2EBC702B2EBC70261EB57712F
:1010000015EB4C254FEA816141EA92114FEA826269
:101010004FEAD13742EA901206FB07FC44F1000484
:101020004FEA80604FEA1C4C0CFB0BF7D21B03FB12
:101030000CF761EB07010CFB0EF7B0EB074072EB0E
:1010400017420CFB08F734BFA2EB0742B2EB074292
:1010500061EB174115EB1C154FEA813141EA9241D2
:101060004FEA823242EA90424FEA80304FEA0C76F1
:1010700044F1000448EA03434EEA0B484FF0000EE7
:10108000B2EB080C71EB030724BF624639464EEB06
:101090000E0E4FF0000B0018524149414BEB0B0B69
:1010A000B2EB080C71EB03077BF1000B24BF624627
:1010B00039464EEB0E0E4FF0000B001852414941DD
:1010C0004BEB0B0BB2EB080C71EB03077BF1000B46
:1010D00024BF624639464EEB0E0E51EA020718BF96
:1010E00046F0010616EB0E7655F1000254F10001B0
:1010F00003D5BDE88901BDE80088BDE88901BDE8E8
:101100000048B619524141EB0101A3F101037047B8
:1011100080807F7E7D7C7B7A797877767675747334
:10112000727171706F6E6E6D6C6C6B6A6A696868F3
:10113000676666656464636362616160605F5F5E89
:101140005E5D5D5C5C5B5B5A5A59595858575756FF
:101150005655555554545353525252515150505064
:101160004F4F4F4E4E4D4D4D4C4C4C4B4B4B4A4AB6
:101170004A494949484848474747474646464545FA
:101180004544444444434343434242424241414133
:10119000002B26D4770021D01CB54FEA370703B4C3
:1011A0004FF010004FF010014FF000000FBCBDE8F1
:1011B00010400BF1010BBBF1010F08BF5FEA1707ED
:1011C00022BF12F1010211F101014FF0004143F180
:1011D000000300F0004043EA00007047F9D35708CD
:1011E000DAE746EA064613F1400F4FEA16461FDDDE
:1011F00013F1200FDFBF16430A46002120335B4264
:10120000C8D0C3F1200746EA064602FA07F74FEABC
:10121000164646EA0706C3F1200722FA03F201FA4E
:1012200007F721FA03F14FF0000342EA0702B1E7A2
:1012300046EA020646EA06464FEA164646EA01062E
:10124000BCBF46EA0646360C4FF000034FF00002E2
:101250004FF000019EE72DE9C048934630B491E875
:10126000380007C831EA400C48BF34EA430C03D5C4
:10127000FFF7F2FDFFF78CFFF0BCBDE800882DE919
:10128000C048934630B491E8380007C810F0804F4A
:1012900008BF13F0804F03D100F005F8FFF778FF87
:1012A000F0BCBDE8008820F07F4780EA030023F00F
:1012B0007F4C07EB0C03A3F57C5300F00040A3F137
:1012C000FE0392F0000F00F0B38095F0000F00F0E5
:1012D00077802DE901494FEA11404FEA144621EA8F
:1012E000004800FB06FC24EA064708FB06F607FB5D
:1012F00008F800FB07F718EB06484CEB164C4FEAD2
:10130000124B18EB07484FEA15464CEB174022EA00
:101310000B4E0BFB06FC25EA06470EFB06F607FB09
:101320000EFE0BFB07F71EEB064E4CEB164C4FF078
:1013300000061EEB074E4CEB174B18EB0B0840F169
:10134000000018EB0E0B58EB000840F100008F1A5C
:101350004FF000013CBFC943661B14BFB5EB040C42
:1013600000213CBFC943F61B4FEA17444EEA8E0EDC
:1013700027EA04454FEA1C4704FB07622CEA074CA6
:1013800005FB07F70CFB05F604FB0CFC16EB074608
:1013900042EB174216EB0C4642EB1C421BEB0606D7
:1013A00058EB0202414146EA9E0601D5BDE801899B
:1013B000B619524141EB0101A3F10103BDE80189D6
:1013C0004FEA14454FEA114724EA054621EA074C43
:1013D00005FB07F406FB07F70CFB06F105FB0CFC0D
:1013E00011EB074144EB17444FEA124711EB0C4154
:1013F00044EB1C4422EA074C05FB07F206FB07F707
:101400000CFB06F605FB0CFC16EB074642EB1742FD
:1014100016EB0C4642EB1C456A1854F1000148BF1C
:101420007047B619524141EB0101A3F10103704726
:1014300095F0000F37D04FEA11424FEA144721EAE6
:10144000024624EA074C02FB07F106FB07F70CFBF8
:1014500006F402FB0CFC14EB074441EB17414FEA86
:10146000154714EB0C4441EB1C4125EA074C02FBE9
:1014700007F506FB07F70CFB06F602FB0CFC16EB68
:10148000074645EB174516EB0C4645EB1C42121977
:1014900051F1000148BF7047B619524141EB0101BB
:1014A000A3F1010370474FEA14454FEA114724EABC
:1014B000054621EA074C05FB07F106FB07F70CFB85
:1014C00006F24FF0000605FB0CFC12EB074241EB65
:1014D000174112EB0C4251EB1C4148BF7047921868
:1014E00041EB0101A3F10103704721B1826842F091
:1014F0000102826003E0826822F00102826070478C
:1015000010B504461248844208D10121401500F06C
:10151000C9FC0021601500F0C5FC17E00D488442AD
:1015200008D10121001500F0BDFC0021201500F0BC
:10153000B9FC0BE00848844208D10121C80300F03F
:10154000B1FC00214FF4004000F0ACFC10BD0000E5
:101550000024014000280140003C014001460020D9
:101560008A6802F004020AB1012000E000207047FE
:101570000146C86C80B270470246002013680B40D9
:101580000BB1012000E000207047014600208A686E
:1015900002F008020AB1012000E0002070470000BC
:1015A00030B502460020002350680F4C20400D79D2
:1015B0000C6844EA05242043506090680B4C20409E
:1015C000D1E902542C434D7944EA4504204390600C
:1015D000D06A20F470000C7C641EE4B2234340EA1D
:1015E0000350D06230BD0000FFFEF0FFFDF7F1FFB9
:1015F000F0B504460D4600200021092D11DDE068FC
:10160000A5F10A0606EB4607072606FA07F1884306
:10161000A5F10A0606EB460603FA06F10843E06068
:101620000CE0206905EB4507072606FA07F1884319
:1016300005EB450603FA06F108432061072A0FDA95
:10164000606B561E06EB86071F2606FA07F18843D5
:10165000561E06EB860605FA06F10843606322E093
:101660000D2A0FDA206BD61F06EB86071F2606FA17
:1016700007F18843D61F06EB860605FA06F10843F4
:10168000206310E0E06AA2F10D0606EB86071F2634
:1016900006FA07F18843A2F10D0606EB860605FA65
:1016A00006F10843E062F0BD816841F00801816005
:1016B000704721B1826842F4A002826003E0826830
:1016C00022F4A00282607047816841F004018160C9
:1016D000704770B506460D46002400BF14E0305D2B
:1016E000295D884200D10DE02846FEF74BFEA0425E
:1016F00001D1012070BD305D295D884201D00020FC
:10170000F8E700BF601CC4B22846FEF73BFE401C51
:10171000A042E4D80020EDE700B587B001214FF4E6
:10172000017000F0AFFB01214FF4816000F0AAFBD3
:101730004FF4004000F07AFB0320ADF804000020D5
:101740008DF8070001A9294800F0C2F90320ADF87F
:10175000040000208DF8070001A9254800F0B8F921
:101760002448FFF7CDFE2448FFF7CAFE0020029070
:101770008DF80C008DF80D004FF4602004900020CF
:10178000059001208DF8180002A91A48FFF708FFFC
:1017900002A91948FFF704FF01211648FFF7A5FE2B
:1017A00001211548FFF7A1FE1248FFF77DFF1248FF
:1017B000FFF77AFF00BF0F48FFF7E7FE20B10E48A2
:1017C000FFF7E3FE0028F6D10A48FFF77DFF0A483D
:1017D000FFF77AFF00BF0748FFF7C0FE20B10648B9
:1017E000FFF7BCFE0028F6D107B000BD000801409D
:1017F000000C0140002401400028014000BFFEE72A
:101800007047000010B5802000F054F8E8B101F0F6
:10181000FBFD19E006F06CF980211F4800F02EFA5C
:1018200008211D4800F02AFA40211B4800F026FA42
:101830001021194800F020FA4FF48071174800F089
:101840001BFA002016490860E4E7402000F032F857
:10185000D8B101F0D9FD17E04FF480710F4800F0C6
:101860000DFA08210C4800F009FA40210A4800F05E
:1018700005FA1021084800F0FFF98021064800F021
:10188000FBF9002007490860E6E7402000F00CF86B
:10189000802000F009F810BD000C01400008014054
:1018A000AC812142BC01214201490860704700001F
:1018B00014040140014600200022074B1B6803EA84
:1018C0000102054B14331B680B4013B10AB1012010
:1018D00000E000207047000000040140002123497F
:1018E0008279002A3AD00A46126803689A430B4666
:1018F0001A600A1D126803689A430B1D1A60027968
:1019000011440A6803681A430A60184A08321268C8
:1019100003689A43154B08331A601A1D126803684E
:101920009A43124B0C331A604279102A0ED11A1FB7
:10193000126803681A430D4B08331A601A1D1268A7
:1019400003681A43094B0C331A600DE007494279CA
:1019500011440A6803681A430A6005E002791144D9
:101960000A6803689A430A60704700000004014057
:101970000149C860704700000020024030B50446AD
:1019800004254FF4302000F06FF80546042D17D1E0
:101990000C48006940F002000A49086108464461A9
:1019A000006940F0400008614FF4302000F05CF81E
:1019B00005460448006941F6FD7108400149086187
:1019C000284630BD0020024004200B49C96801F0C0
:1019D000010109B101200EE00749C96801F00401C5
:1019E00009B1022007E00449C96801F0100109B1FA
:1019F000032000E0042070470020024003480069F3
:101A000040F080000149086170470000002002405A
:101A100070B504460D460426F00200F025F806468F
:101A2000042E11D10948006940F0010007490861FE
:101A30002580F00200F018F806460448006941F6D7
:101A4000FE71084001490861304670BD0020024027
:101A500002480349486003484860704723016745CE
:101A600000200240AB89EFCD00B502460423FFF70A
:101A7000ABFF034603E0FFF7A7FF0346521E012B0F
:101A800001D1002AF7D102B90523184600BD000094
:101A900030B500228B071C0F0F2303FA04F20B4B07
:101AA0008C1053F824309343084C8D1044F82530A3
:101AB00023468C1053F824308C07240F00FA04F4CA
:101AC0002343024C8D1044F8253030BD08000140FE
:101AD0002DE9F041024600250026002000230024C5
:101AE000002791F803C00CF00F0591F803C00CF02B
:101AF000100CBCF1000F03D091F802C04CEA0505B0
:101B000091F800C0BCF1000F31D0146800202BE028
:101B10004FF0010C0CFA00F3B1F800C00CEA030618
:101B20009E4220D183004FF00F0C0CFA03F7BC4308
:101B300005FA03FC4CEA040491F803C0BCF1280F39
:101B400006D14FF0010C0CFA00FCC2F814C00AE0F8
:101B500091F803C0BCF1480F05D14FF0010C0CFA0D
:101B600000FCC2F810C0401C0828D1D31460B1F8A2
:101B700000C0BCF1FF0F34DD546800202EE000F1FE
:101B8000080C4FF0010808FA0CF3B1F800C00CEA99
:101B900003069E4221D183004FF00F0C0CFA03F78D
:101BA000BC4305FA03FC4CEA040491F803C0BCF101
:101BB000280F05D100F1080C08FA0CF8C2F81480BF
:101BC00091F803C0BCF1480F07D100F1080C4FF0A9
:101BD000010808FA0CF8C2F81080401C0828CED37F
:101BE0005460BDE8F0810000F0B50A4600230024EF
:101BF0000021002500F00046B6F1004F02D11D4E35
:101C0000F16901E01B4E7168C0F3034583B200F433
:101C10004016B6F5401F08D121F07061154E766868
:101C200026F07066134F7E6012E000F48016B6F561
:101C3000801F06D1032606FA05F4A14341F0706126
:101C400006E0460D360103FA06F6B14341F0706135
:101C500022B1460D360103FA06F6314300F0004684
:101C6000B6F1004F02D1034EF16101E0014E716007
:101C7000F0BD000000000140416170470161704704
:101C800010B504460723012221460948FFF7B0FC9E
:101C900001210748FFF70DFD00BF02210448FFF7AF
:101CA0006BFC0028F9D00248FFF762FC10BD000071
:101CB0000024014010B504460723012221460948AB
:101CC000FFF796FC01210748FFF7F3FC00BF022154
:101CD0000448FFF751FC0028F9D00248FFF748FC00
:101CE00010BD0000002801402DE9F04707460C46D2
:101CF000002500260FE03846FFF7DCFF814606F09E
:101D0000EDFF8046294606F065FE0546012001F0FC
:101D1000E3FC701CC6B2A642EDDB204606F0DEFFF7
:101D200080464146284606F0C3FEBDE8F0872DE90F
:101D3000F04707460C46002500260FE03846FFF71F
:101D4000B9FF814606F0CAFF8046294606F042FEEA
:101D50000546012001F0C0FC701CC6B2A642EDDBB6
:101D6000204606F0BBFF80464146284606F0A0FE0E
:101D7000BDE8F08700BFFEE700BFFEE77047000048
:101D800070B5002100230F22C47804B3154C2468D9
:101D900004F4E064C4F5E064210AC1F10403CA401C
:101DA000447804FA03F184781440214309010E4C6D
:101DB0000678A155047804F01F050124AC4005788D
:101DC0006D11AD0005F1E025C5F8004109E004788A
:101DD00004F01F050124AC40044D0678761145F847
:101DE000264070BD0CED00E000E400E080E100E082
:101DF00002490143024A1160704700000000FA05E1
:101E00000CED00E00648006800F4E0600549084376
:101E1000001D03490860BFF34F8F00BFFEE70000BD
:101E20000CED00E00000FA057047000001460020BC
:101E3000034A506820F44040084350607047000057
:101E40000010024029B1064AD2690243044BDA610C
:101E500004E0034AD2698243014BDA617047000013
:101E60000010024029B1064A12690243044B1A616C
:101E700004E0034A12698243014B1A617047000073
:101E80000010024029B1064A92690243044B9A614C
:101E900004E0034A92698243014B9A617047000053
:101EA0000010024029B1064AD2680243044BDA60AE
:101EB00004E0034AD2688243014BDA6070470000B5
:101EC0000010024030B500210022002400232D4DD7
:101ED0006D6805F00C0121B1042905D0082923D132
:101EE00005E0294D056022E0274D05601FE0254DE6
:101EF0006D6805F47012234D6D6805F48034022579
:101F000005EB92421CB9214D554305600BE01D4D78
:101F10006D6805F400351DB11C4D5543056002E0A8
:101F2000194D5543056002E0174D056000BF00BF25
:101F3000144D6D6805F0F0010909154D6B5C0568DD
:101F4000DD4045600F4D6D6805F4E061090A104DF4
:101F50006B5C4568DD4085600A4D6D6805F4605135
:101F6000C90A0B4D6B5C4568DD40C560054D6D6869
:101F700005F44041890B074D6B5CC568B5FBF3F573
:101F8000056130BD0010024000127A0000093D00DA
:101F90001400002024000020704710B500F002F863
:101FA00010BD00000CB5002001900090334800687F
:101FB00040F480303149086000BF3048006800F4C8
:101FC000003000900198401C0190009818B90198C9
:101FD000B0F5A06FF1D12948006800F4003010B1CD
:101FE0000120009001E0002000900098012843D1DA
:101FF0002348006840F01000214908600846006846
:1020000020F0030008600846006840F00200086005
:102010001A484068194948600846406848600846C0
:10202000406840F4806048600846406820F47C10B6
:1020300048600846406840F4E81048600846006878
:1020400040F08070086000BF0C48006800F000702D
:102050000028F9D00948406820F00300074948608B
:102060000846406840F00200486000BF03484068EE
:1020700000F00C000828F9D10CBD0000001002404F
:1020800000200240042808D14FF0E021096941F006
:1020900004014FF0E022116107E04FF0E0210969EF
:1020A00021F004014FF0E0221161704770470000F9
:1020B00010B51348006840F0010011490860084657
:1020C0004068104908400E494860084600680E49BB
:1020D00008400B4908600846006820F4802008602A
:1020E0000846406820F4FE0048604FF41F008860F6
:1020F000FFF753FF4FF000600449086010BD000077
:10210000001002400000FFF8FFFFF6FE08ED00E0BF
:102110007FB505460C460121C802FFF7B3FE1648FD
:1021200000F088F9ADF80850ADF804400020ADF893
:102130000A00ADF8060001A90F4800F089FA012154
:102140000D4800F065F9012211460B4800F077FABE
:1021500019208DF8000000208DF8010003208DF873
:10216000020001208DF803006846FFF709FE0021F8
:10217000014800F053F97FBD002C014010B501214A
:102180001B4800F04BFA88B30121194800F043F9CD
:1021900018480068401C1749086017480068401C30
:1021A0001549086015480068401C14490860084635
:1021B0000068B0F5616F0AD11148006808B90120C4
:1021C00000E000200E49086000200C490860094822
:1021D000006810F1030F04D80748006810F1030FDE
:1021E00004D90020034908600349086010BD0000BD
:1021F000002C0140DC010020F0020020280000201B
:10220000AC81214210B50121880700F007FA10B314
:102210000121880700F0FFF80F480068401C0E49B4
:1022200008600E480068401C0C49086001200C49F9
:1022300008700C4908700848006810F1030F02D9B3
:102240000020054908600548006810F1030F02D915
:1022500000200249086010BDE0010020F4020020C7
:10226000E4010020F80200207FB505460C4601215C
:102270000846FFF7E7FDADF80850ADF80440002030
:10228000ADF80A00ADF8060001A94FF0804000F05B
:10229000DFF901221146900700F0D1F91C208DF8DA
:1022A000000000208DF8010003208DF802000120BD
:1022B0008DF803006846FFF763FD00214FF0804072
:1022C00000F0ACF87FBD000010B501210C4800F013
:1022D000A5F998B101210A4800F09DF80948006865
:1022E000401C08490860012007490870054800683B
:1022F00010F1030F02D900200249086010BD000050
:1023000000040040E8020020EC0200207FB50546F2
:102310000C4601210220FFF795FDADF80850ADF8FD
:1023200004400020ADF80A00ADF8060001A90E48EF
:1023300000F08EF9012211460B4800F080F91D20B3
:102340008DF8000000208DF8010003208DF80200B8
:1023500001208DF803006846FFF712FD00210248B6
:1023600000F05CF87FBD00000004004010B50121C2
:102370000C4800F053F998B101210A4800F04BF8DD
:1023800009480068401C0849086001200749087096
:102390000548006810F1030F02D9002002490860C7
:1023A00010BD000000080040E8010020EC01002002
:1023B0007FB505460C4601210420FFF743FDADF82B
:1023C0000850ADF804400020ADF80A00ADF8060052
:1023D00001A90E4800F03CF9012211460B4800F01B
:1023E0002EF91E208DF8000000208DF8010003203A
:1023F0008DF8020001208DF803006846FFF7C0FC4D
:102400000021024800F00AF87FBD000000080040EB
:10241000CA4302827047CA430282704721B10288D0
:1024200042F00102028004E002884FF6FE731A4077
:102430000280704710B504466848844208D10121E3
:10244000C014FFF72FFD0021E014FFF72BFDC4E0BF
:10245000B4F1804F08D101210846FFF703FD0021A8
:102460000120FFF7FFFCB8E05D48844208D101215C
:102470000220FFF7F7FC00210220FFF7F3FCACE09D
:102480005848844208D101210420FFF7EBFC0021C9
:102490000420FFF7E7FCA0E05348844208D1012163
:1024A0000820FFF7DFFC00210820FFF7DBFC94E0A9
:1024B0004E48844208D101211020FFF7D3FC0021AF
:1024C0001020FFF7CFFC88E04948844208D1012161
:1024D0002020FFF7C7FC00212020FFF7C3FC7CE091
:1024E0004448844208D101214014FFF7DBFC00215D
:1024F0006014FFF7D7FC70E03F48844209D1012106
:10250000C804FFF7CFFC00214FF40020FFF7CAFCFE
:1025100063E03A48844209D101210805FFF7C2FC73
:1025200000214FF48010FFF7BDFC56E03448844290
:1025300009D101214805FFF7B5FC00214FF4001037
:10254000FFF7B0FC49E02F48844208D10121402028
:10255000FFF788FC00214020FFF784FC3DE02A487B
:10256000844208D101218020FFF77CFC00218020DB
:10257000FFF778FC31E02548844208D1012180151D
:10258000FFF770FC0021A015FFF76CFC25E0204848
:10259000844209D101210804FFF784FC00214FF493
:1025A0008030FFF77FFC18E01A48844209D10121EE
:1025B0004804FFF777FC00214FF40030FFF772FC6E
:1025C0000BE01548844208D101218804FFF76AFC1A
:1025D00000214FF48020FFF765FC10BD002C014066
:1025E0000004004000080040000C004000100040C3
:1025F0000014004000340140004C014000500140F4
:102600000054014000180040001C00400020004021
:1026100000400140004401400048014030B50246FE
:10262000002000230024158A05EA0103958905EAA4
:10263000010413B10CB1012000E0002030BD1AB13B
:1026400083890B43838102E083898B4383817047B5
:10265000002202881D4B98420ED01D4B98420BD091
:10266000B0F1804F08D01B4B984205D01A4B9842CE
:1026700002D01A4B984204D14FF68F731A404B8800
:102680001A43174B984207D0164B984204D04FF686
:10269000FF431A40CB881A4302808B8883850B88BE
:1026A00003850A4B98420BD0094B984208D00E4B39
:1026B000984205D00D4B984202D00D4B984201D163
:1026C0000B7A03860123838270470000002C0140AF
:1026D000003401400004004000080040000C0040AD
:1026E0000010004000140040004001400044014040
:1026F0000048014010B50548007830B10448007822
:1027000002F034FE00200149087010BD9300002043
:102710009200002010B540F22551354800F09EF897
:10272000002864D0324800F055F932490870084654
:1027300000780A280AD101202F4908702F48007814
:10274000012818D102202D49087014E0294800788A
:102750002B492C4A128888542A480088401C294951
:10276000088008460088C82805D100200880C821B4
:102770002348FDF76BFE22480078742817D12048C3
:1027800040785F2813D11E4880786C280FD11C48F0
:10279000C07865280BD11A480079642807D11848F9
:1027A00040795F2803D10120174908701AE01448C6
:1027B0004078742816D1124880785F2812D11048CA
:1027C000C0786C280ED10E48007965280AD10C48D3
:1027D0004079642806D10A4880795F2802D1012017
:1027E0000949087040F22551014800F00FF810BD6A
:1027F000004400404D0000204A0000204B00002013
:10280000EC030020480000204E00002010B50022FC
:10281000002340F66A14A14200D100BF0A1201242D
:102820009440A3B2DC43048010BD21B1828942F4FC
:102830000052828104E082894DF6FF731A40828142
:10284000704702460020B1F5007F00D100BF138819
:102850000B400BB1012000E00020704770B502462C
:10286000002400230025002040F66A16B14200D162
:1028700000BFC1F3421501F01F03012606FA03F35E
:10288000012D02D19689334006E0022D02D1168A2D
:10289000334001E0968A33400C12012606FA04F414
:1028A0001688344013B10CB1012000E0002070BD47
:1028B000F0B50346002400260025002040F66A17E4
:1028C000B94200D100BF1846C1F3421401F01F06FF
:1028D000012707FA06F5012C01D10C3004E0022C87
:1028E00001D1103000E014301AB107682F4307609F
:1028F00002E00768AF430760F0BD00002DE9F04734
:1029000086B005460E460024A24600BFA146002719
:10291000B08900B100BF2F462C8A4CF6FF700440EE
:10292000F08804432C82AC894EF6F3100440B08842
:1029300031890843718908430443AC81AC8A4FF65E
:10294000FF400440B0890443AC8201A8FFF7BAFA03
:102950001F48874202D1DDF810A001E0DDF80CA08D
:10296000A88900F4004040B10AEBCA0000EB0A104D
:1029700031684900B0FBF1F807E00AEBCA0000EB50
:102980000A1031688900B0FBF1F86420B8FBF0F060
:1029900004012009642101FB1089A88900F400408A
:1029A00040B1322000EBC900B0FBF1F000F00700AD
:1029B000044308E0322000EB09106421B0FBF1F081
:1029C00000F00F0004432C8106B0BDE8F087000042
:1029D0000038014001468888C0F308007047C1F301
:1029E00008028280704700BFFEE770B505460C46BE
:1029F00012E000BF80212846FFF723FF0028F9D00E
:102A000021782846FFF7EBFF00BF40212846FFF75B
:102A100018FF0028F9D1641C20780028E9D14FF470
:102A2000FA7000F059FE70BD490050EAC12018BF8D
:102A300004204A0D18BF40F0010040F2FF72B2EBD3
:102A4000515F08BF40F00200012808BF0520704711
:102A500080F31088704700BF70470146612905DB8D
:102A60007A2903DCA1F12000C0B27047302903DBD2
:102A7000392901DC0846F8E7412903DB5A2901DC42
:102A80000846F2E700BFF0E770B504460549204666
:102A900006F06CF906464FF08B4106F009F8054642
:102AA000284670BD00002543014641F6C81301FBCE
:102AB00003F0C31700EB1353C3F30F3210467047F4
:102AC0002DE9F0470446894600BF00BF00BF7148AA
:102AD00000781538C5B2B9F1000F6DDD05F10D01B3
:102AE000605C03F0B4FE4FF47A7100FB01FA05F16B
:102AF0000E01605C03F0ABFE00EBC00101EB0010C7
:102B00000AEB800A05F10F01605C03F0A0FE00EB08
:102B100080000AEB400A05F11001605C03F097FEAB
:102B20000AEB000805F11201605C03F090FE82469A
:102B300005F11101605C03F08AFE00EB80000AEBF6
:102B4000400605F11401605C03F081FE824605F148
:102B50001301605C03F07BFE00EB80000AEB400792
:102B600040F2E37080450ADB002E08DD0D2E06DA08
:102B7000002F04DD1F2F02DA0120BDE8F0873B465D
:102B80003246414644A0FDF757FB05F11500205C95
:102B900041280BDB05F11500205C5A2806DC05F105
:102BA0001500215C42A0FDF747FB02E041A0FDF7C4
:102BB00043FB04F015F86BE005F10E01605C03F0D7
:102BC00046FE4FF47A7100FB01FA05F10F01605CDB
:102BD00003F03DFE00EBC00101EB00100AEB800AA0
:102BE00005F11001605C03F032FE00EB80000AEB9F
:102BF000400A05F11101605C03F029FE0AEB0008B0
:102C000005F11301605C03F022FE824605F112011A
:102C1000605C03F01CFE00EB80000AEB400605F14F
:102C20001501605C03F013FE824605F11401605C3F
:102C300003F00DFE00EB80000AEB400740F2E3706A
:102C4000804509DB002E07DD0D2E05DA002F03DDA0
:102C50001F2F01DA012090E73B463246414616A07D
:102C6000FDF7EAFA05F11600205C41280BDB05F1BF
:102C70001600205C5A2806DC05F11600215C0CA029
:102C8000FDF7DAFA02E00BA0FDF7D6FA03F0A8FF91
:102C9000002072E769030020D5FDCABDB0E6B1BED1
:102CA0002564C4EA2564D4C22564BAC500000000C6
:102CB0002563B0E60D0A0000B5F7CAD4B0E6B1BE90
:102CC0002564C4EA2564D4C22564BAC500000000A6
:102CD0002DE9F04705460E46002721E04FF0010997
:102CE000002414E0621C55F8221055F8240006F068
:102CF00009F90BD255F82480601C55F8200045F8DE
:102D00002400601C45F820804FF00009641C701EF0
:102D1000C01BA042E6DCB9F1000F00D003E07F1C2D
:102D2000701EB842DADC00BFBDE8F08710B50120A4
:102D30000749087001210748FFF76DFB0122114682
:102D40000448FFF77CFC01210248FFF767FB10BD38
:102D5000D6010020000400402DE9F0474FF00008A4
:102D6000C14600250024C821CA48FDF791FB022472
:102D700000BFC821C848FDF769FB0020C74908808B
:102D8000C7A1C848FFF731FE4FF4967000F0A4FCCD
:102D9000201EA4F10101CCB2EBD11E2400BFC8213A
:102DA000BD48FDF753FB0020BC490880BEA1BD48CB
:102DB000FFF71BFE4FF4967000F08EFCB64840788B
:102DC000742810D1B44880785F280CD1B248C078FC
:102DD000622808D1B0480079652804D1AE4840790E
:102DE000652800D119E0AC480078742810D1AA48B1
:102DF00040785F280CD1A8488078622808D1A6487E
:102E0000C078652804D1A4480079652800D104E081
:102E1000201EA4F10101CCB2C1D100BFC4F11E013A
:102E2000A4A0FDF709FA142000F056FC0121880740
:102E3000FFF7F1FA012211469007FFF700FC01218C
:102E40008807FFF7EBFA01219E48FFF7E4FA012219
:102E500011469C48FFF7F3FB01219A48FFF7DEFA81
:102E600013E199480068002845DD9848007801285A
:102E700041D197480068401C954908600420FEF73E
:102E800019FF00EB401000EB8006F11706EB115123
:102E9000081305F00BFF8F490860084601688E484B
:102EA000006805F097FD8C49086089480068FA2899
:102EB00021D1002086490860834908608349087051
:102EC00086498548006805F0F3FD85490860084695
:102ED00000688449844A126841F8220000207E4933
:102EE000086081480068401C7F4908607F4800688E
:102EF000401C7E4908607E4800680028B0DD7D489F
:102F000000780128ACD17C480068401C7A490860F0
:102F1000084600680128A3D10020086074490860B1
:102F2000744908700620FEF7ABFE064605F0D6FE93
:102F30005849724A126841F8220070480068401CE3
:102F40006E49086008460068C82889D100E06D1CF9
:102F50006A4800688542FADB0020684908606549D4
:102F6000087001218807FFF756FA0022012188071F
:102F7000FFF765FB00214FF08040FFF74FFA00207C
:102F8000594908605149087001214E48FFF743FA3A
:102F9000002201214B48FFF752FB00214948FFF76F
:102FA0003DFAC82211463B4802F00CFF81464F48CB
:102FB000002102684B4800F0B5FB51490860084603
:102FC000006805F0DBFC064632460B464DA0FDF7D7
:102FD00033F90A2400BFC8212F48FDF737FA002033
:102FE0002E4908804EA12F48FFF7FFFC4FF4967042
:102FF00000F072FB28484078742811D12648807868
:103000005F280DD12448C078622809D12248007970
:10301000652805D120484079652801D103241AE0AC
:103020001D480078742811D11B4840785F280DD1C5
:1030300019488078622809D11748C078652805D1D9
:1030400015480079652801D1032404E0201EA4F16D
:103050000101CCB2BFD100BF34492948006805F056
:1030600051FF06D232492648006805F04BFE00D2D7
:103070000CE02348006805F081FC064632460B460A
:103080002CA0FDF7D9F803F0ABFDEAE600BFBDE8E0
:10309000F087000044090020EC03002048000020D5
:1030A0000D0A000000440040745F626565702031C5
:1030B0000D0A00007472795F74696D65733D256453
:1030C0000D0A000000080040E8010020EC0100208B
:1030D000DC020020A4020020AC02002000007A43A1
:1030E000A8020020B4070020E0020020E402002033
:1030F000E0010020E4010020D4020020D8020020DA
:10310000F4010020626565705F695F6F6B3D256645
:103110006D412836307E313030290D0A0000000024
:10312000745F6265657020300D0A00000000704217
:103130000000C842322E3120626565705F695F65AC
:1031400072726F723D25666D412836307E313030A7
:10315000290D0A002DE9F04106460F464FF4805133
:103160000F48FEF78BFD0A2000F0B6FA0A21002076
:10317000FEF7BAFD054605F079FD84B22046FFF75B
:1031800093FC084908800846018807A0FDF754F819
:103190004FF480510248FEF76FFD0020BDE8F0813A
:1031A000000C014094000020776174636820706F08
:1031B0007765722076353A25646D760D0A00000039
:1031C0002DE9F04106460F464FF400510F48FEF737
:1031D00055FD0A2000F080FA0A210120FEF784FD47
:1031E000054605F043FD84B22046FFF75DFC084923
:1031F00008800846018807A0FDF71EF84FF400512B
:103200000248FEF739FD0020BDE8F081000C0140C6
:1032100094000020776174636820706F7765722076
:10322000766261743A25646D760D0A0010B540F23D
:1032300025510B48FFF712FB40B10948FFF7CAFBC5
:103240000849087001200849087008E04FF45871D7
:103250000348FFF703FB10B10148FFF7BBFB10BDAC
:103260000038014092000020930000202DE9F04139
:1032700006460F464FF480411148FEF7FFFC0A2036
:1032800000F02AFA0A210920FEF72EFD054605F076
:10329000EDFC84B22046FFF707FC0A490880084687
:1032A000018809A0FCF7C8FF052000F015FA4FF4CB
:1032B00080410348FEF7E0FC0020BDE8F0810000FB
:1032C000000C014094000020776174636820706FE7
:1032D0007765722076332E333A25646D760D0A00B9
:1032E0002DE9F04106460F464FF400510F48FEF716
:1032F000C5FC0A2000F0F0F90A210120FEF7F4FCD9
:10330000054605F0B3FC84B22046FFF7CDFB084923
:1033100008800846018807A0FCF78EFF4FF4005193
:103320000248FEF7A9FC0020BDE8F081000C014036
:1033300094000020776174636820706F7765722055
:10334000766261743A25646D760D0A002DE9F041CC
:1033500006460F464FF400410F48FEF78FFC0A2047
:1033600000F0BAF90A210820FEF7BEFC054605F078
:103370007DFC84B22046FFF797FB08490880084689
:10338000018807A0FCF758FF4FF400410248FEF700
:1033900073FC0020BDE8F081000C01409400002087
:1033A000776174636820706F776572207664643A21
:1033B00025646D760D0A000070B505480578002477
:1033C00003E000F007F8601CC4B2AC42F9DB70BD4A
:1033D0006900002010B508232022194606A0FCF73A
:1033E0002BFF07480078401E054908700548007803
:1033F000401E0449087010BD256325632563000045
:103400006800002069000020012004490860044988
:10341000C1F8AC010349086070470000BC012242BA
:1034200000802142BC0121422DE9F04106460024E2
:103430000025002700BF2DE000251CE0174951F8AA
:103440002400FCF79FFF0746705D144951F82410D3
:10345000495D884200D10DE0BD4202D1E0B2BDE835
:10346000F081705D0D4951F82410495D884200D00B
:1034700009E000BF6D1C094951F82400FCF782FFE8
:10348000401CA842DAD800BF142C01D13320E6E753
:1034900000BF641C142CCFDB3220E0E74002002088
:1034A0002DE9F041064600240025002700BF2DE04D
:1034B00000251CE0174951F82400FCF763FF07467C
:1034C000705D144951F82410495D884200D10DE027
:1034D000BD4202D1E0B2BDE8F081705D0D4951F806
:1034E0002410495D884200D009E000BF6D1C0949E5
:1034F00051F82400FCF746FF401CA842DAD800BF70
:10350000052C01D13320E6E700BF641C052CCFDB7E
:103510003220E0E79002002010B50A48006805213B
:1035200090FBF1F201FB1200074901EBC01480226D
:1035300006492046FCF745FF02480068401C014947
:10354000086010BD6C00002034050020B404002089
:1035500071B600BF0648006800F4E0600549084302
:10356000001D03490860BFF34F8F00BF00BFFEE797
:103570000CED00E00000FA052DE9F04705460E4687
:103580001746984600243C48006841F2883190FB79
:10359000F1F03A4908600846006839490968401A5C
:1035A000404505DB0220374908700020BDE8F08760
:1035B00035480068A8420ADA34483349096840F8B7
:1035C000216031480068401C2F49086051E000200C
:1035D0002D490860002433E02C4A52F82410134689
:1035E000621C53F8220005F0C9FC8246002105F058
:1035F00089FC0AD8254A52F824101346621C53F855
:10360000220005F0BBFC814609E0204B621C53F808
:1036100022101A4652F8240005F0B0FC81463946C3
:10362000484605F06FFB00D809E0002015490870F6
:103630004FF4C8711548FCF72BFF0020B6E7641C57
:10364000681EA042C8DC01200E49087029460F48B8
:10365000FFF73EFB2A4600210C4800F063F80C49B6
:1036600008604FF4C8710948FCF712FF0848006869
:103670009CE700BF9AE70000F0020020D003002082
:10368000CC030020D4030020C80300207C0F0020BE
:103690002403002010B56FF00400FEF7F3FC0A4885
:1036A00000680A49B0FBF1F0094908700846007843
:1036B00000EB4001C1EBC0104FF6FF7101EAC00002
:1036C0000449088010BD00000000002000127A00AC
:1036D00040000020420000200146114A12884A435F
:1036E0004FF0E0235A6100229A611A46126942F0B3
:1036F00001021A6100BF4FF0E022106900F00102E0
:103700001AB100F48032002AF5D04FF0E02212699D
:1037100022F001024FF0E0231A6100229A61704703
:10372000420000202DE9F04707460C4615460026CA
:10373000B046264606E057F82610404605F04AF9FE
:103740008046761C281BB042F5DC022101FB145098
:1037500005F0ACFA81464946404605F0A9F9BDE8B6
:10376000F087000070B504460D46012C04DD03A06F
:10377000FCF762FD002070BDFFF7EAFE6261642085
:10378000636F6D6D616E64210D0A00002DE9F041DB
:1037900006460F46022E05DD16A0FCF74DFD002063
:1037A000BDE8F081012E13D100240EE004EB4400AB
:1037B000134B03EB8000826804EB440053F82010A5
:1037C00010A0FCF739FD601CC4B21A2CEED30EE039
:1037D000786800F0C3F8054625B90DA0FCF72CFD6C
:1037E0000020DDE70FA0AA682968FCF725FD01206D
:1037F000D6E700006261642061726773210D0A00E0
:10380000980000202573090925730D0A00000000A7
:1038100066696E64206E6F20636F6D6D616E6421EA
:103820000D0A000025730925730D0A0070B50546C1
:103830000E46294608A0FCF7FFFC002407E056F8D6
:10384000242021460EA0FCF7F7FC601CC4B2AC4259
:10385000F5DB012070BD0000746869732069732076
:103860007465737420636F6D6D616E6421256420CF
:103870006172677320696E7075740D0A0000000034
:10388000096172675B25645D3D25730D0A000000C8
:1038900070B504460D46034903A0FCF7CDFC00209B
:1038A00070BD00007400002025730D0A00000000A8
:1038B000F8B505460C460026022D04D01EA0FCF7E4
:1038C000BBFC0020F8BD606802F084FFC6B2A6B958
:1038D0000120FFF7BDF801221B48616800F080F964
:1038E00001226946184800F067F9694617A0FCF7FD
:1038F000A3FC0020FFF7ACF81BE0012E14D101203F
:10390000FFF7A6F801221048616800F069F901226A
:1039100069460D4800F050F969460CA0FCF78CFC94
:103920000020FFF795F804E003A0FCF785FC0020D9
:10393000C8E70020C6E7000062616420636F6D6D18
:10394000616E64210D0A000000EC0108665F636887
:10395000616E6C653D25730D0A00000070B505466B
:1039600000240FE004EB4401084A52F821002946E4
:10397000FCF7B6FD28B904EB4400044901EB8000D4
:1039800070BD641C1A2CEDD30020F9E798000020CC
:103990002DE9F04F89B00024A14600200790069041
:1039A0001E226E496E4800F007F96C4800785528D1
:1039B00013D16A4840785A280FD1684890F802908D
:1039C000684880F8009000BF05E06449E01C085C8E
:1039D00065490855641C4C45F7DB1422634964486B
:1039E00000F0EAF861480078552816D15F48407821
:1039F0005A2812D15D4890F8029000240BE05B49F0
:103A0000E01C085C5B4908555849E01C095CA01D96
:103A1000594A1154641C4C45F1DB1422574958484B
:103A200000F0CAF855480078552816D15348407818
:103A30005A2812D1514890F8029000240BE04F49C7
:103A4000E01C085C4F4908554C49E01C095CA01D6E
:103A50004D4A1154641C4C45F1DB01224B494C4842
:103A600000F0AAF849480078302803D100204949DD
:103A7000086006E045480078312802D10120454918
:103A800008603D4802F0C2FB074604F077FFCDE92D
:103A90000401394802F0BAFB019004F06FFF0746B9
:103AA0003D4A3E4B04F074FE00223D4BCDE902013D
:103AB00004F03AFD8246DDE9042304F047FB0546A5
:103AC00004F05EFA0790079804F058FF8246354AE2
:103AD000354B04F03BFB07460022344B04F082FADE
:103AE000054604F08BFC32490860274802F08EFB43
:103AF000074604F043FF05460E46234802F086FBC6
:103B0000019004F03BFF0746234A244B04F040FE9B
:103B10000022234BCDE9020104F006FD2A4633467C
:103B2000CDE9040104F012FB824604F029FA069064
:103B3000069804F023FF82461A4A1B4B04F006FB4A
:103B400007460022194B04F04DFA054604F056FCD6
:103B50001849086009B0BDE8F08F0000FA0E002097
:103B600000E0010869030020C80E0020A003002027
:103B700000E401082C0F002078030020B40300208B
:103B800000E80108400F00208C030020680300209B
:103B900000EC010874030020FCA9F1D24D62404002
:103BA00080842E41508D976E1283EE3F0000E03FDF
:103BB0006C0300207003002030B503460C46154608
:103BC000002206E0184600F007F8A0545B1C501CC9
:103BD00082B2AA42F6DB30BD014608787047000089
:103BE0002DE9F74F86B0064617464FF00009CA4642
:103BF000FDF72EFF3420FDF7BBFEA6F1006004F0B8
:103C000043FC00224A4BCDE9000104F08DFC002268
:103C1000484BCDE9020104F099FACDE9040104F022
:103C2000AFF9814606EB4701A1F1006004F02CFCDE
:103C300000223F4BCDE9000104F076FC00223D4B11
:103C4000CDE9020104F082FACDE9040104F098F90B
:103C50008246484604F0EEFF049005F027F84946F6
:103C6000059005F080F98346002105F04BF907D84F
:103C7000484604F0DFFF834605F018F8044608E0E4
:103C8000484604F0D7FFA0F1010B584605F00EF8A6
:103C90000446504604F0CEFF049005F007F8834632
:103CA000514605F060F90021059005F02BF907D881
:103CB000504604F0BFFF834604F0F8FF054608E0D5
:103CC000504604F0B7FFA0F1010B584604F0EEFF98
:103CD0000546A0461CE041464FF0894005F046F8F5
:103CE0004FF09A41049004F075FE059004F0BEFF79
:103CF0008346FDF743FE1049087000BF0E48007868
:103D00000428FBD14FF07E51404604F063FE80460C
:103D10002946404604F0F6FFDDD93A463046079979
:103D200000F00CF8FDF76AFE09B0BDE8F08F000066
:103D30000000F03F00009040640000202DE9F041B9
:103D400005460E461746002400BF0DE036F8141055
:103D50002846FDF75DFE0649087000BF044800785C
:103D60000428FBD1AD1C641CBC42EFDBBDE8F08134
:103D70006400002000BF054A128802F04002002AB9
:103D8000F9D0C2B2014B1B1D1A80704700380140A8
:103D90002DE9F047FE480078012806D10020FC49B3
:103DA0000870C821FB48FCF751FBFB48007800284D
:103DB0006DDDF848FFF738FBF84908600020F84946
:103DC00008803221F748FCF763FBF74800780228A7
:103DD0001BD10020F54908800CE0EE48F349098822
:103DE000405CF049F14A12888854F0480088401C31
:103DF000EE490880ED4800882328EEDBEC48007887
:103E000002F010FB0320E8490870E4480068E8B3BA
:103E1000E248006801283ED0E048006802283AD015
:103E2000DE480068032836D0DC480068042832D019
:103E3000DA48006805282ED0D848006806282AD01D
:103E4000D6480068072826D0D4480068082822D021
:103E5000D248006809281ED0D04800680A281AD025
:103E6000CE4800680B2816D0CC4800680C2812D029
:103E7000CA4800680D280ED0C84800680E280AD02D
:103E8000C64800680F2806D0C44801E003E03FE0C0
:103E90000068102836D1C14800680E2801D102F010
:103EA0006DFCBE480068012801D102F067FCBB48E8
:103EB0000068092801D102F061FCB84800680A28AE
:103EC00001D102F05BFCB54800680D2801D102F079
:103ED00055FCB2480068102803D0B048006812288A
:103EE00002D1102002F04AFCAC480068112801D130
:103EF00002F044FC0120AC490870A8480078AC49A5
:103F0000087002E00120A24908700020A249087050
:103F1000A848006800287BDDA7480078012877D1F1
:103F2000A64800780128FAD14FF000080020A249E5
:103F300008700520FDF7A4FE814604F0A5FA0646A8
:103F400000229F4B04F0F0FA04469E480CC820461D
:103F500004F048F89B4A03C296480068B0F57A7F9F
:103F60006ED10020934908609748006804F006FD70
:103F700006460F460022954B924903C904F0E6F825
:103F8000044632463B4604F00FFC8E4A03C290487A
:103F9000006850B90A208E4908608E48006841F2D6
:103FA000883190FBF1F08C49086089480068401C1A
:103FB00087490860834903C903F0E2FF04464623AA
:103FC000864A21460620FFF7D7FA854908608548CA
:103FD0000078012858D100207849087001208249D2
:103FE000087000207F4908707D4801687F4804F010
:103FF00089FE2CD87E497A48006804F083FE26D8D2
:104000007748006804F0BAFC044622460B4600E0FC
:104010005EE078A0FCF710F901217C48FEF7FBF97F
:10402000002201217948FEF70AFB00217748FEF7BC
:10403000F5F968480068052190FBF1F4214600E09D
:1040400045E073A0FCF7F8F802F080FE1CE00021C8
:104050006E48FEF7E3F9002201216C48FEF7EFFA03
:1040600001216A48FEF7D7F95D48006804F086FC34
:10407000044622460B4670A0FCF7DEF84FF4FA70B7
:10408000FFF72AFB02F0ACFD5648007802281ED14B
:1040900000204A4908700120534908700020514906
:1040A000087000215948FEF7B9F90022012157484C
:1040B000FEF7C5FA01215548FEF7ADF966A0FCF7F9
:1040C000BBF84FF4FA70FFF707FB02F089FD00BF61
:1040D00038480068002859DD37480078012855D154
:1040E000414800780128FAD10020334908700520A2
:1040F000FDF7C6FD804604F0C7F906460022304BA6
:1041000004F012FA04462F480CC8204603F06AFF58
:104110002C4A03C227480068B0F57A7FDFD100201F
:10412000244908602848006804F028FC04460D462D
:104130000022264B234903C904F008F8064622460C
:104140002B4604F031FB1F4A03C21E480CC848A08E
:10415000FCF772F84A48006850B90A2048490860DC
:104160001C48006841F2883190FBF1F01A49086060
:1041700043480068401C42490860124903C903F0E3
:10418000FFFE044646233F4A21467DE006E100004B
:10419000ED020020EC0300204A0000200C03002068
:1041A00048000020E80D00204B00002008030020FC
:1041B00014030020E8020020EC020020D4010020BB
:1041C00000DBFA3F000300202003002000408F4066
:1041D000E0030020F0020020CC0300200000A041FA
:1041E00018030020D4030020D501002000007041F6
:1041F00000008C42776F726B5F695F6F6B3D256665
:1042000075412831357E3730290D0A000004004001
:104210002D2D2D2D2D2D2D2D2D2D2D2D2D2D3130C7
:104220002E534C4545505F492D2D2D2D2D2D2D25DF
:10423000646D730D0A000000392E3120776F726BA8
:104240005F695F6572726F723D2566754128313511
:104250007E3730290D0A0000392E3220776F726BBD
:104260005F695F6F76657274696D65210D0A000084
:10427000736C6565705F693A256675410D0A0000CB
:10428000E4030020000020410620FFF775F989496A
:10429000086089480078012861D1002087490870AA
:1042A0008549087083480168002004F02BFD39D847
:1042B00083498048006804F025FD33D801218148F6
:1042C000FEF7A9F8002201217E48FEF7B8F9002187
:1042D0007C48FEF7A3F87748006804F04FFB0446DB
:1042E00022460B4678A0FBF7A7FF4FF4165003F0C9
:1042F000A9FB10217A48FDF7BFFC4FF4FA70FFF7D5
:10430000EBF908217648FDF7B7FC0A20FFF7E4F93E
:1043100080217348FDF7B0FC0A20FFF7DDF902F0B9
:1043200057FD1CE000216748FEF778F800220121C4
:104330006448FEF784F901216248FEF76CF85D4895
:10434000006804F01BFB044622460B4665A0FBF701
:1043500073FF4FF4FA70FFF7BFF902F041FC5648C3
:10436000007802281AD10020544908705249087078
:1043700000215448FEF752F8002201215148FEF76F
:104380005EF901214F48FEF746F85EA0FBF754FFA7
:104390004FF4FA70FFF7A0F902F022FC60480068C1
:1043A00000287DDD5F480078012879D15E480078DB
:1043B00001287CD100205B4908700520FDF760FCD6
:1043C000804604F061F806460022584B04F0ACF831
:1043D000044657480CC8204603F004FE544A03C262
:1043E0004F480068B0F57A7F61D100204C490860E1
:1043F0000022504B4E4903C903F0A8FE4C4A03C2A9
:104400004B4903C903F0BCFD4B494C4A126841F8C3
:1044100022004A480068401C484908600846006875
:10442000042844D1002008603F4908700421424814
:10443000FEF74EFC042201213F48FFF773F9404983
:1044400008600846006804F099FA044622460B46C4
:104450003CA0FBF7F1FE41493948006804F052FDE9
:104460000BD23748006804F089FA044622460B460E
:104470003BA0FBF7E1FE02F017FB01211148FDF71D
:10448000CAFF002201210F48FEF7D9F800210D488C
:10449000FDF7C4FF3A480068052190FBF1F400E005
:1044A00005E0214637A0FBF7C7FE03F049F8BDE859
:1044B000F08700001C030020D4030020D501002059
:1044C0000000A04100040040736C6565705F695F87
:1044D0006F6B3D2566754128307E3230290D0A000C
:1044E000000C014031302E3120736C6565705F69BE
:1044F0005F6572726F723D2566754128307E32307D
:10450000290D0A0031302E3220736C6565705F69A9
:104510005F6F76657274696D65210D0A0000000099
:10452000E8020020EC020020D601002000DBFA3F68
:104530000003002000408F404C0E0020E8030020C4
:1045400020030020626173655F695F6F6B3D2566C4
:10455000754128307E353030290D0A000000FA43BD
:10456000372E3120626173655F695F6572726F72A9
:104570003D2566754128307E353030290D0A000012
:10458000F00200202D2D2D2D2D2D2D2D2D2D2D2DFD
:104590002D2D382E574F524B5F562D2D2D2D2D2D55
:1045A0002D2D2D25646D730D0A0000002DE9F041BD
:1045B00096B004460025F74800781538C6B2122C8C
:1045C0007ED2DFE804F00974F4F3F2F1F0EFEEEDDF
:1045D000ECEBEAE9E8E7E6E5EE480278EE49EF4879
:1045E00003F0DFFA01280AD106F10C00EB49085C60
:1045F0005F285BD10121E948FEF762FA56E0E8A0A6
:10460000FBF71AFEE548C07DE449897DE34A527D07
:10461000E24B1B7DCDE91132CDE91310DF48C07CA0
:10462000DE49897CDD4A527CDC4B1B7CCDE90D32B6
:10463000CDE90F10D948C07BD8498A7B497BD74B3D
:104640001B7BCDE90931CDE90B20D448C27A807AB1
:10465000D249497AD14B1B7ACDE90531CDE9070220
:10466000CE48C27981794079CC4B1B79CDE90130B4
:10467000CDE90312C948C0780090C84883784278D1
:104680000178CEA0FBF7D8FDC349DCA0FBF7D4FD31
:1046900006F10C00C149085C442805D10021BF483F
:1046A000FEF70EFA02F09CFA02F09AFA00BFD84820
:1046B000007A2D287FD1D648FBF764FE0A3800E047
:1046C0007DE2C5B2012D06D0022D0ED0032D1FD0E4
:1046D000042D6ED136E0CE49487A02F0B8F8474250
:1046E0003946CCA0FBF7A8FD64E0C949887A02F0FE
:1046F000AEF88046C649487A02F0A9F800EB80007F
:1047000008EB400047423946C2A0FBF795FD51E057
:10471000BF49487A02F09BF8642100FB01F8BC49CC
:10472000887A02F094F800EB800008EB4008B84962
:10473000C87A02F08CF8404447423946B5A0FBF7EE
:104740007BFD37E0B249487A02F081F84FF47A7184
:1047500000FB01F8AE49887A02F079F800EBC0015D
:1047600001EB001008EB8008A949C87A02F06FF845
:1047700000EB800008EB4008A549087B02F067F8D1
:10478000404447423946A3A0FBF756FD12E012E031
:104790000FE20DE20BE2F6E1F4E1EDE1D8E1C3E175
:1047A000AEE1EDE0D8E0C3E0AEE099E08BE06EE092
:1047B000FFE700BF6AE09648FBF7E4FD0938C5B2A1
:1047C000012D06D0022D0ED0032D1ED0042D5BD15D
:1047D00035E08F49087A02F03AF8074639468DA04D
:1047E000FBF72AFD51E08A49487A02F030F880460A
:1047F0008749087A02F02BF800EB800008EB4007AD
:10480000394684A0FBF718FD3FE08149087A02F0A1
:104810001EF8642100FB01F87D49487A02F017F880
:1048200000EB800008EB40087949887A02F00FF825
:1048300008EB0007394677A0FBF7FEFC25E074493A
:10484000087A02F004F84FF47A7100FB01F870491D
:10485000487A01F0FCFF00EBC00101EB001008EB0F
:1048600080086B49887A01F0F2FF00EB800008EBCA
:1048700040086749C87A01F0EAFF08EB00073946AB
:1048800064A0FBF7D9FC00E000BF00BF98E16448DA
:1048900041684248FCF71DFF012806D161A0FBF7E3
:1048A000CBFC0020644908700CE05D4881683B48FF
:1048B000FCF70FFF012805D160A0FBF7BDFC01202C
:1048C0005D4908707CE15648C1683448FCF701FF37
:1048D000012804D0524801693048FCF7FAFE6FE124
:1048E0004F48C1692D48FCF7F4FE01280BD04C4815
:1048F00041692A48FCF7EDFE012804D154A0FBF7DA
:104900009BFC02F06DF95BE1454881692348FCF7A7
:10491000E0FE01280BD0424841692048FCF7D9FE4F
:10492000012804D155A0FBF787FC02F059F947E1B3
:104930003B48016A1948FCF7CCFE01280BD03848E7
:1049400041691648FCF7C5FE012804D156A0FBF7C3
:1049500073FC02F045F933E1314881690F48FCF7F7
:10496000B8FE01280BD02E4841690C48FCF7B1FE77
:10497000012804D156A0FBF75FFC02F031F91FE1DA
:10498000274841690548FCF7A4FE012800D1B1E0A1
:10499000B5E0000069030020C80E0020E80D0020EB
:1049A000312E3120736F66745F76657273696F6E36
:1049B0005F6572726F72A3A10D0A00007072655F6D
:1049C00076657273696F6E3A256325632563256387
:1049D0002563256325632563256325632563256397
:1049E0002563256325632563256325632563256387
:1049F00025632563256325630D0A000073617665D1
:104A00005F76657273696F6E3A25730D0A00000058
:104A1000EC0300207274633D25640D0A0000000061
:104A200028030020626C653D6F6C6420626C7565C4
:104A3000746F6F74680D0A00D8010020626C653DC8
:104A40006E657720626C7565746F6F74680D0A000F
:104A5000312E3220626C655F6572726F7221202088
:104A600067657420627420666163206E616D653ACB
:104A70006572726F72210D0A00000000312E322023
:104A8000626C655F6572726F72212020736574209D
:104A9000627420666163206E616D653A6572726F43
:104AA00072210D0A00000000312E3220626C655F19
:104AB0006572726F722120207265616420627420B9
:104AC0006D61633A6572726F72210D0A0000000019
:104AD000312E3220626C655F6572726F7221202008
:104AE00073657420627420736E3A6572726F7221FE
:104AF0000D0A000034A0FBF79FFB02F071F85FE0A5
:104B00003A48C16A3A48FCF7E4FD01280BD037481F
:104B1000416A3748FCF7DDFD012804D135A0FBF7D9
:104B20008BFB02F05DF84BE03048016B3048FCF73E
:104B3000D0FD01280BD02D48816A2D48FCF7C9FD16
:104B4000012804D135A0FBF777FB02F049F837E0E4
:104B5000264881692648FCF7BCFD01280BD0234874
:104B600041692348FCF7B5FD012804D135A0FBF7C6
:104B700063FB02F035F823E03BA0FBF75DFB02F09E
:104B80002FF81DE01CE01948416B1948FCF7A1FD06
:104B900001280BD01548816B1548FCF79AFD0128B8
:104BA00004D01248C16B1248FCF793FD08E007E0FF
:104BB00006E034A0FBF740FB02F012F800E000BF73
:104BC00000BF16B0BDE8F081312E3220626C655F07
:104BD0006572726F72212020676574206274207381
:104BE0006E3A6572726F72210D0A00002803002070
:104BF000E80D0020312E3220626C655F6572726FA5
:104C000072212020536574206D696E20636F6E6E73
:104C10003A6572726F72210D0A000000312E322047
:104C2000626C655F6572726F72212020536574201B
:104C30006D617820636F6E6E3A6572726F72210DCE
:104C40000A000000312E3220626C655F6572726F5F
:104C500072212020736574206274206164763A6545
:104C600072726F72210D0A00312E33206164786CEC
:104C70003336206973206F66666C696E65210D0A94
:104C800000000000312E3420666C6173682074656A
:104C900073743A6572726F72210D0A0070B5044622
:104CA00027480068002821DD04BB25480068401E15
:104CB0002349086008460068052190FBF1F201FBDA
:104CC0001200204901EBC015802229461E48FBF73F
:104CD00078FB1D48FBF756FB1C4908700846007816
:104CE0001B49087018491BA0FBF7A6FA1448006876
:104CF00019490968884222DA012C20D1104800683D
:104D0000052190FBF1F201FB12000E4901EBC015E9
:104D1000802229460C48FBF754FB09480068401CD8
:104D20000749086008490BA0FBF786FA0648FBF71D
:104D300029FB06490870084600780549087070BDCF
:104D40006C00002034050020B4040020680000201E
:104D500069000020257300007000002008B50121C3
:104D60000846FDF78FF80121A048FCF73DFF01211F
:104D70009F48FCF739FF01210420FDF783F801214A
:104D80000820FDF77FF801211020FDF77BF84FF494
:104D90000040ADF8000003208DF8020010208DF8CF
:104DA000030069469348FCF793FE4FF40041914895
:104DB000FCF764FF4FF40060ADF8000003208DF8AD
:104DC000020010208DF8030069468B48FCF780FE36
:104DD0004FF400618848FCF751FF4FF40040ADF8F4
:104DE000000003208DF8020010208DF803006946B2
:104DF0008248FCF76DFE4FF400418048FCF73EFF0F
:104E00000820ADF8000003208DF8020010208DF876
:104E1000030069467848FCF75BFE08217648FCF7FA
:104E20002BFF1020ADF8000003208DF802001020A9
:104E30008DF8030069467048FCF74AFE10216E4861
:104E4000FCF71CFF2020ADF8000003208DF80200C5
:104E500010208DF8030069466748FCF739FE2021D1
:104E60006548FCF709FF4020ADF8000003208DF8ED
:104E7000020010208DF8030069465F48FCF728FE09
:104E800040215D48FCF7F8FE8020ADF800000320CB
:104E90008DF8020010208DF8030069465648FCF793
:104EA00017FE80215448FCF7E7FE4FF48050ADF820
:104EB000000003208DF8020010208DF803006946E1
:104EC0004D48FCF705FE4FF480514B48FCF7D4FEEB
:104ED0004FF40050ADF8000003208DF802001020C0
:104EE0008DF8030069464448FCF7F2FD4FF4005189
:104EF0004148FCF7C1FE4FF48040ADF800000320AC
:104F00008DF8020010208DF8030069463A48FCF73E
:104F1000DFFD4FF480413848FCF7AEFE4FF400400F
:104F2000ADF8000003208DF8020010208DF803007A
:104F300069463148FCF7CCFD4FF400412E48FCF7A0
:104F40009BFE4FF48070ADF8000003208DF8020046
:104F500010208DF8030069462848FCF7B9FD4FF48E
:104F600080712648FCF78AFE4FF44070ADF80000CF
:104F700003208DF8020010208DF8030069461E48BA
:104F8000FCF7A6FD4FF440711B48FCF775FE4FF48B
:104F9000C050ADF8000003208DF8020010208DF8FD
:104FA000030069461548FCF793FD4FF4C0511348C0
:104FB000FCF762FEC020ADF8000003208DF802006F
:104FC00048208DF8030069460C48FCF781FD4FF43A
:104FD0008060ADF8000003208DF8020048208DF8B5
:104FE000030069460448FCF773FD08BD0004300067
:104FF0000002300000100140000C01400008014098
:1050000070B504460D460026022C04D00AA0FBF71A
:1050100013F9002070BD686801F0DCFBC6B226B948
:1050200008210948FCF728FE03E008210648FCF7A0
:1050300025FE0020EEE7000062616420636F6D6D65
:10504000616E64210D0A0000000C014070B5044639
:105050000D46FFF783FE4FF480710248FCF70CFE0B
:10506000002070BD0008014070B504460D460026C2
:10507000022C04D012A0FBF7DFF8002070BD686896
:1050800001F0A8FBC6B2012E04D0022E08D0032ED8
:1050900012D10BE04FF400410D48FCF7EFFD0BE09F
:1050A0004FF400610B48FCF7E9FD05E04FF40041C7
:1050B0000948FCF7E3FD00BF00BF0020DEE7000069
:1050C00062616420636F6D6D616E64210D0A000082
:1050D00000100140000C01400008014070B504467A
:1050E0000D460026022C04D015A0FBF7A5F80020E1
:1050F00070BD686801F06EFBC6B2032E04DD10A01F
:10510000FBF79AF80020F3E7012E04D0022E08D016
:10511000032E12D10BE04FF400410D48FCF7ACFD1B
:105120000BE04FF400610B48FCF7A6FD05E04FF4DF
:1051300000410948FCF7A0FD00BF00BF0020D7E7F1
:1051400062616420636F6D6D616E64210D0A000001
:1051500000100140000C01400008014070B50446F9
:105160000D460026022C04D00BA0FBF765F80020AA
:1051700070BD686801F02EFBC6B22EB94FF4807185
:105180000948FCF779FD04E04FF480710648FCF70C
:1051900075FD0020ECE7000062616420636F6D6DB7
:1051A000616E64210D0A00000008014070B50446DC
:1051B0000D460026022C04D00AA0FBF73DF8002083
:1051C00070BD686801F006FBC6B226B940210948E7
:1051D000FCF752FD03E040210648FCF74FFD00209C
:1051E000EEE7000062616420636F6D6D616E6421A3
:1051F0000D0A0000000C014070B504460D46002663
:10520000022C04D00AA0FBF717F8002070BD6868D4
:1052100001F0E0FAC6B226B910210948FCF72CFDCE
:1052200003E010210648FCF729FD0020EEE700000E
:1052300062616420636F6D6D616E64210D0A000010
:10524000000C014070B504460D460026022C04D027
:105250000BA0FAF7F1FF002070BD686801F0BAFA00
:10526000C6B22EB94FF400410948FCF705FD04E031
:105270004FF400410648FCF701FD0020ECE7000078
:1052800062616420636F6D6D616E64210D0A0000C0
:10529000000C014070B504460D460026022C04D0D7
:1052A0000BA0FAF7C9FF002070BD686801F092FA00
:1052B000C6B22EB94FF400710948FCF7DDFC04E0DA
:1052C0004FF400710648FCF7D9FC0020ECE7000021
:1052D00062616420636F6D6D616E64210D0A000070
:1052E000000C014070B504460D460026022C04D087
:1052F0000AA0FAF7A1FF002070BD686801F06AFA01
:10530000C6B226B980210948FCF7B6FC03E080212B
:105310000648FCF7B3FC0020EEE700006261642061
:10532000636F6D6D616E64210D0A0000000C014019
:105330000146302903DB392901DC012070470020B8
:10534000FCE70146302903DB392901DC01207047E5
:10535000412903DB462901DC0120F8E7612903DB51
:10536000662901DC0120F2E70020F0E710B50446D1
:105370001B2C03D101204649087010BD4448007819
:10538000012805D15B2C03D1022041490870F4E7C4
:105390003F480078022835D100203D490870412C53
:1053A00006D0422C1ED0432C28D0442C28D126E0F5
:1053B00038480068002801DDFDF7FEFF3648007818
:1053C00000280BDDFEF7A8F832480068401C314980
:1053D000086032480068401E304908600020FFF72E
:1053E0005DFCCAE72D4800682A490968884204DA4A
:1053F000FDF7E2FF0120FFF751FCBEE7BDE7BCE788
:1054000000BF02E00020224908701F2C17DD7F2C0E
:1054100015DA214800787F2811DA214620A0FAF712
:105420000BFF20481C49097844541B480078401C55
:10543000194908701C480078401C1B490870082C4A
:1054400005D115480078002801DDFDF7C3FF0D2CBC
:105450001BD116A0FAF7F0FE00201249124A12786A
:10546000885411480078002804DDFEF755F80D48EF
:1054700000F0B2FF094800680649086000200649AC
:1054800008700949087000F035FC00BF75E700009E
:10549000D001002070000020680000206C00002077
:1054A00025630000B4040020690000200D0A0000FC
:1054B0001FB501210420FCF7E5FCC020ADF80C006D
:1054C00004208DF80F0003208DF80E0003A9164864
:1054D000FCF7FEFA01210846FCF7D4FC0721002066
:1054E000FCF7D6FA06210020FCF7D2FAC020019082
:1054F00000208DF8080008208DF8090001208DF8A3
:105500000A0001A8FCF7EAF917208DF800000F2027
:105510008DF801008DF8020001208DF80300684627
:10552000FCF72EFC1FBD0000000801402DE9F041F2
:105530008046002400250026C820FEF7CDF800BFD5
:1055400014E00A210420FCF7CFFB0746FDF79CFA84
:105550000C490860084600680B4941F824000948D6
:105560000168304603F036FA0646641C502CE8DB2E
:10557000502205210448FEF7D5F805462846BDE827
:10558000F0810000F0010020780C002010B50A2402
:105590004FF4165002F056FA4FF49670FEF79CF84E
:1055A00000BFC8210D48FAF751FF00200C490880C0
:1055B0000CA10F48FDF719FAFA20FEF78DF80D48F7
:1055C0000078012800D110BD201EA4F10101CCB249
:1055D000E7D109A0FAF730FE00BFF4E7EC030020A2
:1055E00048000020745F6C65645F6F66660D0A009A
:1055F000004400404E000020745F6C65645F6F667D
:1056000066210D0A000000002DE9F04FA7B0002030
:1056100026902590322424902390229081460A20BF
:1056200021904FF0000A4FF0000B002020901F90B7
:105630001E901D901C901B904FF0050900BFC821C3
:10564000AC48FAF703FF0020AB490880ABA1AD4896
:10565000FDF7CBF94FF49670FEF73EF8A548407879
:10566000742812D1A34880785F280ED1A148C07851
:105670006C280AD19F480079652806D19D48407959
:10568000642802D14FF003091DE09A48007874287D
:1056900012D1984840785F280ED1964880786C28BF
:1056A0000AD19448C078652806D1924800796428C8
:1056B00002D14FF0030906E0B9F10000A9F10101A0
:1056C00001F0FF09BBD100BF4FF4165002F0BAF948
:1056D0004FF4FA70FEF700F8D6E08B480078012806
:1056E00006D1002088490870C8218248FAF7AEFE2A
:1056F00086480078002813DD7E48FDF7D1FE044679
:1057000000207D49088044B1012C06D0022C04D031
:10571000032C02D001207C49087000207B490870CE
:1057200034B1012C0CD0022C12D0032C20D117E064
:105730000A2401201E9015A8FFF7F8FE824619E002
:105740000A2401201D900FA8FFF7F0FE834611E008
:105750000A2401201C9009A8FFF7E8FE209009E028
:105760000A2401201B9003A8FFF7E0FE1F9001E030
:105770000A2400BF00BF1E980128ADD11D98012842
:10578000AAD11C9801287FD11B9801287CD15146B1
:10579000584603F0F3FB074603F0F0F805464FF0D8
:1057A00033325B4B02F0BEFF39D85146209803F0EC
:1057B000E5FB074603F0E2F805460022554B02F0F0
:1057C000B1FF1DD85146584603F0D8FB074603F0F9
:1057D000D5F805462A460B464FA0FAF72DFD51464F
:1057E000209803F0CBFB074603F0C8F805462A468D
:1057F0000B464FA0FAF720FD52A0FAF71DFD44E03A
:105800005146209803F0BAFB074603F0B7F8054667
:105810002A460B464EA0FAF70FFD01F0E1F951467A
:10582000209803F0ABFB074603F0A8F805460022DA
:10583000384B02F077FF0DD85146584603F09EFBD7
:10584000074603F09BF805462A460B464AA0FAF79E
:10585000F3FC17E05146209803F090FB029003F010
:105860008DF805460E465146584603F087FB0290D8
:1058700003F084F807463A460B464A48CDE90056FD
:10588000FAF7DAFC01F0ACF927E700BF4FF0140992
:1058900000BFC8211748FAF7D9FD00201649088033
:1058A00027A11848FDF7A1F812484078542812D1D2
:1058B0001048807848280ED10E48C07839280AD17F
:1058C0000C480079302806D10A484079322802D1A4
:1058D0004FF0030909E06420FDF7FEFEB9F1000076
:1058E000A9F1010101F0FF09D3D100BF27B0BDE844
:1058F000F08F0000EC03002048000020745F6C650E
:10590000640D0A0000440040ED0100204A00002020
:105910003333C33F0000E03F677265656E3D256627
:10592000283E3D302E31356D41290D0A0000000022
:105930007265643D2566283E3D302E35306D412927
:105940000D0A00006C65645F6F6B0D0A00000000BB
:10595000342E31207265645F6C65645F6572726FAE
:10596000723D25666D41287265643A3E3D302E35A4
:10597000306D41290D0A0000342E322067726565B2
:105980006E5F6C65645F6572726F723D25666D4116
:1059900028677265656E3A3E3D302E31356D41297E
:1059A0000D0A0000E49400082DE9FF5F05460C464F
:1059B0000026002003900027029001908246834633
:1059C0000090804681462846FAF7DCFC814600BFFD
:1059D00017E0A85D3A2813D17F1C012F01D1019651
:1059E0000EE0022F01D1B2460AE0032F01D1B346E7
:1059F00006E0042F01D1009602E0052F00D1B04649
:105A0000761C4E45E5DB0198022809D12878FDF780
:105A100024F820706878FDF720F860703A20A070B4
:105A2000BAF1040F07D13020E070E878FDF715F8DF
:105A300020713A206071BAF1050F09D1E878FDF7BD
:105A40000CF8E0702879FDF708F820713A206071B1
:105A5000BBF1060F07D13020A0716879FCF7FDFF7C
:105A6000E0713A202072BBF1070F09D16879FCF789
:105A7000F4FFA071A879FCF7F0FFE0713A202072E2
:105A80000098082807D130206072E879FCF7E5FF1C
:105A9000A0723A20E0720098092809D1E879FCF751
:105AA000DCFF6072287AFCF7D8FFA0723A20E0721F
:105AB000B8F10A0F07D130202073687AFCF7CDFFC8
:105AC00060733A20A073B8F10B0F09D1687AFCF724
:105AD000C4FF2073A87AFCF7C0FF60733A20A0735C
